:100000000C942B000C9448000C9448000C9448006D
:100010000C9448000C9448000C9448000C944A003E
:100020000C9448000C9448000C9448000C94480030
:100030000C9448000C9448000C9448000C94480020
:100040000C9448000C9448000C9448000C94480010
:100050000C944800AA0011241FBECFE5D8E0DEBFF3
:10006000CDBF20E0A0E6B0E001C01D92A336B207EC
:10007000E1F710E0CBE2D0E004C02197FE010E943E
:10008000B100CA32D107C9F70E9495000C94B7009D
:100090000C9400001F920F920FB60F9211242F9311
:1000A0003F934F935F936F937F938F939F93AF9300
:1000B000BF93EF93FF9380E690E00E948700FF914B
:1000C000EF91BF91AF919F918F917F916F915F91D0
:1000D0004F913F912F910F900FBE0F901F90189549
:1000E000DC01FB0111967C936E9312964C93DB011D
:1000F0002E9181E090E001C0880F4A95EAF7922F97
:10010000982B9C9390818095892380830895FC018E
:10011000A081B1818C91928121E030E001C0220F59
:100120009A95EAF782278C930895F8948FB58C7F7F
:100130008FBD8EB58C608EBD8EB58C7E8EBD8DE8EC
:100140009BE59BBD8ABD1DBC1CBC89B7806189BF76
:100150007894FFCF43E06BE370E080E690E00C948E
:100160007000EE0FFF1F0590F491E02D0994F894B4
:02017000FFCFBF
:00000001FF
